:10000000E8C100000C947E1B0C94A91B0C94D41B1B
:100010000C94FF1B0C942A1C0C94551C0C94801CF3
:100020000C94AB1C07C2000005C2000003C2000014
:1000300001C200000C941424FDC10000FBC10000AB
:10004000F9C10000F7C10000F5C10000F3C10000D4
:10005000F1C10000EFC10000EDC100000C94D61CFE
:10006000E9C100000C94AB200C94E120E3C1000036
:10007000E1C10000DFC10000DDC10000DBC1000004
:10008000D9C10000D7C10000D5C10000D3C1000014
:100090000C9437210C946D21CDC10000CBC1000020
:1000A000C9C10000C7C10000C5C10000C3C1000034
:1000B000C1C10000BFC10000BDC10000BBC1000044
:1000C000B9C10000B7C10000B5C100000C94C32144
:1000D0000C94F921AFC100000C944F220C9485229E
:1000E000A9C10000071E0C1E111E1B1E251E9E1EF0
:1000F0002F1E371E3F1E491E531E5D1E6C1E761E90
:100100009E1E801E8A1E941EC21EC51EB41EB81ED0
:10011000BE1EFC1EC91ECD1ED31ED71EDB1EE11E39
:10012000E51EE91EFC1EEF1EF31EF71ED32C7E2ECD
:10013000E82EEB2ED42D072E922CB32C762CC52E28
:10014000B42EC12EEB2EEB2EEB2E612C08000000FE
:10015000BE922449123EABAAAA2ABECDCCCC4C3EBC
:1001600000000080BEABAAAAAA3E00000000BF00AB
:100170000000803F0000000000084178D3BB4387A7
:10018000D1133D190E3CC3BD4282AD2B3E68EC82BB
:1001900076BED98FE1A93E4C80EFFFBE01C4FF7F40
:1001A0003F000000000000000A0B02090C0D0E08C1
:1001B0000703040100000000000000000000000030
:1001C000000000000000000000000000000000002F
:1001D00000001211100000000000000000000000EC
:1001E00000000000000000000000000001021020DC
:1001F000200808102040102040800201020108045D
:1002000002010102040810204080804020100804F0
:100210000201800402018040201008040201080449
:10022000020101020408102040800102040810208D
:1002300040800505050507050808080802020202B6
:100240000A0A080804040404010101010101010172
:100250000303030303030303040707070C0C0C0C3D
:100260000C0C0C0C02020202060606060606060626
:100270000B0B0B0B0B0B0B0B0000200023002600BD
:1002800029002C002F0032000001000003010601AC
:10029000090100002200250028002B002E0031005B
:1002A000340002010000050108010B0100002100DB
:1002B000240027002A002D00300033000101000037
:1002C000040107010A0102001D3A2774694E53E830
:1002D000F5D2CF9C81A6BBCDD0F7EAB9A4839E25E9
:1002E000381F02514C6B76879ABDA0F3EEC9D46FCC
:1002F0007255481B06213C4A57706D3E230419A2D3
:10030000BF9885D6CBECF1130E2934677A5D40FB9C
:10031000E6C1DC8F92B5A8DEC3E4F9AAB7908D36AA
:100320002B0C11425F78659489AEB3E0FDDAC77C8F
:1003300061465B0815322F5944637E2D30170AB190
:10034000AC8B96C5D8FFE2263B1C01524F6875CE98
:10035000D3F4E9BAA7809DEBF6D1CC9F82A5B80370
:100360001E3924776A4D50A1BC9B86D5C8EFF2494F
:1003700054736E3D20071A6C71564B1805223F844A
:1003800099BEA3F0EDCAD735280F12415C7B66DD1C
:10039000C0E7FAA9B4938EF8E5C2DF8C91B6AB1032
:1003A0000D2A3764795E43B2AF8895C6DBFCE15A0B
:1003B00047607D2E3314097F6245580B16312C9708
:1003C0008AADB0E3FED9C4000A2196212222AE22D2
:1003D0001A2311241FBECFEFD1E2DEBFCDBF00E054
:1003E0000CBF14E0A0E0B2E0E4E5FCE600E00BBFE7
:1003F00002C007900D92A23EB107D9F729E0A2EE04
:10040000B4E001C01D92A233B207E1F711E0C9EEDA
:10041000D1E000E006C021970109802FFE010E9473
:100420009334C43ED10780E00807A9F70E947230D8
:100430000C942836E5CD662311F061E001C060E040
:100440000C94FD1E662311F061E001C060E00C9485
:10045000391F0E94681F21E0019709F020E0822FD8
:1004600008952F923F924F925F926F927F928F9258
:100470009F92AF92BF92CF92DF92EF92FF920F9333
:100480001F93CF93DF93CDB7DEB72A970FB6F894BB
:10049000DEBF0FBECDBF4B015C015A8749871901F2
:1004A000E982FA820B831C83DA012D913D914D91F3
:1004B0005C910E94593118160CF07EC0E981FA81D6
:1004C000EE0FFF1FEE0FFF1F89859A85E80FF91FBA
:1004D0002081318142815381C501B4010E9459318B
:1004E00087FF79C027013801769467945794479421
:1004F000ED82FE820F831887C12CD12C76018D816D
:100500009E81AF81B8858C199D09AE09BF090297FC
:10051000A105B10538F1F201EE0FFF1FEE0FFF1F2D
:10052000A985BA85EA0FFB1F208131814281538161
:10053000C501B4010E94593187FD03C073016201F6
:1005400004C04D825E826F8278864D805E806F80AF
:1005500078844C0C5D1C6E1C7F1C769467945794B9
:100560004794CDCFC601880F991F880F991F098521
:100570001A85080F191FF80140805180628073802E
:10058000A3019201C501B4010E94F4304B015C014A
:10059000A3019201D80114966D917D918D919C914A
:1005A00017970E94F4309B01AC01C501B4010E9471
:1005B0005D314B015C0106C0C12CD12C7601812C30
:1005C000912C540189819A81AB81BC81C816D906CE
:1005D000EA06FB0671F4C980DA80CC0CDD1CCC0C79
:1005E000DD1CF101EC0DFD1D608171818281938123
:1005F00020C09FEFC91AD90ACC0CDD1CCC0CDD1C25
:10060000D101AC0DBD1DFD013497C080D180E280C9
:10061000F380A70196016D917D918D919C910E942F
:10062000F430A50194010E948D33A70196010E9428
:10063000F5302A960FB6F894DEBF0FBECDBFDF911E
:10064000CF911F910F91FF90EF90DF90CF90BF90CF
:10065000AF909F908F907F906F905F904F903F9062
:100660002F9008952F923F924F925F926F927F92B8
:100670008F929F92AF92BF92CF92DF92EF92FF92B2
:100680000F931F93CF93DF9300D0CDB7DEB7762EB5
:100690006A013B832A83662309F464C0F701208141
:1006A000213009F45FC0FC0186889788A08CB18C4A
:1006B000EA81FB812081318142815381C501B401EE
:1006C0000E94F4309B01AC01F80164817581868140
:1006D00097810E945D310E942E321B012C010E94E5
:1006E000C20D811128C0C201B1010E94700D81119B
:1006F00022C020E030E040E85FE4C201B1010E9486
:1007000048321B012C01662E032D142D598220E046
:1007100030E0A9010E94593187FF11C0C201B10127
:1007200090580E94C53190958095709561957F4F46
:100730008F4F9F4F0AC0612C00E010E01982662D98
:10074000702F812F99810E94C531F60160837183DA
:1007500082839383EA81FB8180829182A282B38229
:1007600084E08483F70170820F900F900F90DF91E7
:10077000CF911F910F91FF90EF90DF90CF90BF909E
:10078000AF909F908F907F906F905F904F903F9031
:100790002F9008958F929F92AF92BF92CF92DF9247
:1007A000EF92FF92CF93DF93EC01688179818A8188
:1007B0009B812DE133EF41E050E00E94713449010B
:1007C0005A019B01AC01A7EAB1E40E949B346B0182
:1007D0007C01A4E1BBE0A50194010E949B34C616F4
:1007E000D706E806F90630F421E0C21AD108E1087C
:1007F00020E8F20AC61AD70AE80AF90AC882D9829A
:10080000EA82FB82688179818A819B810E94F13131
:1008100020E030E040E050E30E948D33DF91CF9143
:10082000FF90EF90DF90CF90BF90AF909F908F9010
:1008300008958F929F92AF92BF92CF92DF92EF92E4
:10084000FF92CF93DF93EC01CE01A4DF9B01AC01BB
:100850000E94F53020E030E040E85FE30E94F43091
:100860006B017C01CE0196DF9B01AC010E94F5304B
:1008700020E030E040E85FE30E94F4309B01AC01EF
:100880000E948D334B015C01A7019601C701B6019F
:100890000E948D33A50194010E94F5304B015C014B
:1008A00020E030E040E85FE30E944433181664F231
:1008B000C501B4010E944D3320E030E040E050EC2F
:1008C0000E948D33A50194010E945D310E94F43392
:1008D000A70196010E948D33DF91CF91FF90EF9099
:1008E000DF90CF90BF90AF909F908F9008952F9200
:1008F0003F924F925F926F927F928F929F92AF92B0
:10090000BF92CF92DF92EF92FF920F931F93CF93FC
:10091000DF9300D01F92CDB7DEB78091CB08082EB1
:10092000000C990B0197029710F483E001C080E05E
:100930008093CB088091BB08082E000C990B01977F
:10094000029710F483E001C080E08093BB08C09060
:100950001E03D0901F03E0902003F0902103A70115
:10096000960160916B0870916C0880916D08909170
:100970006E080E945931882309F43FC0C701B601AF
:100980000E94700D882369F060911E0370911F030F
:1009900080912003909121030E94700D81110DC060
:1009A0001CC060911E0370911F03809120039091E1
:1009B00021030E94C20D8111E7CF80911E03909107
:1009C0001F03A0912003B09121038093FA08909314
:1009D000FB08A093FC08B093FD088091FA08909161
:1009E000FB08A091FC08B091FD0880936B089093E0
:1009F0006C08A0936D08B0936E0888E02ADD28EF9C
:100A0000E22E28E0F22E03EC13E022EC38E04EE078
:100A100059E0682F8CEC98E025DEC0901A03D09046
:100A20001B03E0901C03F0901D03A7019601609149
:100A300073087091740880917508909176080E94EF
:100A40005931882309F43FC0C701B6010E94700DD7
:100A5000882369F060911A0370911B0380911C0335
:100A600090911D030E94700D81110DC01CC06091FA
:100A70001A0370911B0380911C0390911D030E9427
:100A8000C20D8111E7CF80911A0390911B03A091B1
:100A90001C03B0911D038093FE089093FF08A09360
:100AA0000009B09301098091FE089091FF08A09180
:100AB0000009B09101098093730890937408A09382
:100AC0007508B093760889E0C4DC99EFE92E98E0C8
:100AD000F92E0BEC13E027EC38E042E159E0682FE7
:100AE0008CEC98E0BFDD8091BE03882389F0809173
:100AF0008F0890919008A0919108B0919208409130
:100B0000930850919408609195087091960810C0D0
:100B100080910E0990910F09A0911009B0911109CF
:100B200040911209509113096091140970911509AF
:100B3000841B950BA60BB70B80930A0990930B09A6
:100B4000A0930C09B0930D0920917603309177039F
:100B5000409178035091790360917203709173030F
:100B600080917403909175030E94F530762EC72E04
:100B7000D82E692EE0907A03F0907B0310917C03CD
:100B8000B0907D039701412F5B2D0E9444331816CE
:100B90009CF0E0907E03F0907F0310918003B09072
:100BA00081039701412F5B2D672D7C2D8D2D962D77
:100BB0000E94593187FF04C07E2CCF2CD12E6B2C84
:100BC00020918203309183034091840350918503E7
:100BD000672D7C2D8D2D962D0E948D334B015C0150
:100BE00020E030E040E853E40E94593187FF0EC016
:100BF00020E030E0A901C501B4010E94443387FD23
:100C000007C0C501B4010E94C53103C06FEF01C028
:100C100060E070E0809112030E94E01D80907603F6
:100C200090907703A0907803B090790311E0209121
:100C30008A0330918B0340918C0350918D03C50141
:100C4000B4010E945931811118C010E08091F70859
:100C5000882399F08091970890919808A09199081D
:100C6000B0919A088093060990930709A093080908
:100C7000B093090984E08093BB081093F708609152
:100C80000A0970910B0980910C0990910D090E943D
:100C9000F33120918E0330918F0340919003509156
:100CA00091030E948D3369837A838B839C8320E038
:100CB00030E0A901C501B4010E945931882389F0AF
:100CC00080916E0390916F03A0917003B0917103B6
:100CD0008093020990930309A0930409B093050936
:100CE00020C02091060930910709409108095091D0
:100CF000090969817A818B819C810E94F43020915D
:100D00006A0330916B0340916C0350916D030E9414
:100D10008D336093020970930309809304099093C3
:100D20000509A5019401609172037091730380918C
:100D30007403909175030E94F43020910209309160
:100D4000030940910409509105090E94F5304B01B7
:100D50005C01E0909203F090930310919403509003
:100D600095039701412F552D0E94443318168CF09E
:100D7000E0909603F0909703109198035090990398
:100D80009701412F552DB401C5010E94593187FFAC
:100D900003C04701A12EB52C20919A0330919B03EB
:100DA00040919C0350919D03B401C5010E948D3375
:100DB0001B012C0120E030E040E853E40E9459314F
:100DC00087FF0EC020E030E0A901C201B1010E94FE
:100DD000443387FD07C0C201B1010E94C53103C081
:100DE0006FEF01C060E070E0809116030E94E01D8B
:100DF00012E0E12EF12C00E010E022E233E04EE2BE
:100E000053E0B401C5012DDB2091770830917808BB
:100E10004091790850917A080E94F5302091A20300
:100E20003091A3034091A4035091A5030E94F53093
:100E30002091AA033091AB034091AC035091AD03D4
:100E40000E948D3320919B0830919C0840919D0811
:100E500050919E080E94F5304B015C0126E433E07E
:100E600042E553E0672D7C2D8D2D962DFADA2091E9
:100E70007B0830917C0840917D0850917E080E944B
:100E8000F53020919E0330919F034091A003509133
:100E9000A1030E94F5302091B2033091B303409139
:100EA000B4035091B5030E948D3320919F08309177
:100EB000A0084091A1085091A2080E94F5302B0192
:100EC0003C016091BF0384E0BDDA6091C00385E01E
:100ED000B9DA6091C10382E0B5DA6091C20383E0C0
:100EE000B1DAC301B2010E942E326B017C0156D6E9
:100EF000811127C0C701B6011CD6811122C020E094
:100F000030E040E85FE4C701B6010E9448326B015F
:100F10007C01162F2D2C3E2C0F2D20E030E0A90156
:100F20000E94593187FF11C0C701B60190580E9435
:100F3000C53190958095709561957F4F8F4F9F4FEC
:100F40000AC010E0212C312C00E0612F722D832D7E
:100F5000902F0E94C53160938F0870939008809302
:100F6000910890939208C501B4010E942E326B0142
:100F70007C0114D6811127C0C701B601DAD58111D1
:100F800022C020E030E040E85FE4C701B6010E94E3
:100F900048326B017C01362E0D2D1E2D2F2C20E0AA
:100FA00030E0A9010E94593187FF11C0C701B60185
:100FB00090580E94C53190958095709561957F4FAE
:100FC0008F4F9F4F0AC0312C00E010E0212C632D81
:100FD000702F812F922D0E94C531609393087093DA
:100FE0009408809395089093960889819A81AB81A3
:100FF000BC818093970890939808A0939908B09328
:101000009A0880929B0890929C08A0929D08B092AA
:101010009E0883EA98E00DDC20913E0330913F0367
:1010200040914003509141030E948D3320913A0337
:1010300030913B0340913C0350913D030E94F530B9
:1010400060937708709378088093790890937A0872
:1010500040929F085092A0086092A1087092A20846
:1010600087EA98E0E6DB20916203309163034091C8
:101070006403509165030E948D3320915E0330918B
:101080005F0340916003509161030E94F5306093CB
:101090007B0870937C0880937D0890937E0881E0A4
:1010A00090E00E942A1B4091E2085091E308609171
:1010B000E4087091E50880E090E00E94261B809093
:1010C000F2089090F308A090F408B090F50820E0A2
:1010D00030E040E85FEBC501B4010E94593188233C
:1010E00031F1C090E208D090E308E090E408F0907D
:1010F000E508A7019601C501B4010E94F4304B0137
:101100005C0120E030E040E054E3C701B6010E94FA
:101110008D339B01AC01C501B4010E944433181604
:1011200034F088EE93E09093CD088093CC088091C2
:10113000F608882331F088EE93E09093CD088093F1
:10114000CC088091E6089091E708A091E808B0915A
:10115000E908BC01CD016F5F7F4F8F4F9F4F6093B8
:10116000E6087093E7088093E8089093E908611512
:10117000710581059105A9F4C090EA08D090EB08AB
:10118000E090EC08F090ED08AFEFCA1ADA0AEA0A2C
:10119000FA0AC092EA08D092EB08E092EC08F092CA
:1011A000ED08C090EE08D090EF08E090F008F090C5
:1011B000F1080E94F131A70196010E948D334B0185
:1011C0005C016091EA087091EB088091EC089091C5
:1011D000ED080E94F131A70196010E948D3320E0B5
:1011E00030E040E85FE40E948D339B01AC01C50113
:1011F000B4010E94F5306093E2087093E308809395
:10120000E4089093E5080F900F900F900F90DF91F6
:10121000CF911F910F91FF90EF90DF90CF90BF90F3
:10122000AF909F908F907F906F905F904F903F9086
:101230002F9008958F929F92AF92BF92CF92DF929C
:10124000EF92FF92CF9384E090E013D48BE2ECEC2A
:10125000F8E0DF011D928A95E9F780E090E0A0E8D0
:10126000BFEB8093F2089093F308A093F408B09337
:10127000F5088FE692E1A3E8BAE38093EE08909335
:10128000EF08A093F008B093F10880E395EDA3E98F
:10129000B6E18093D0089093D108A093D208B09380
:1012A000D30883E390E8AAE1B4E38093D408909351
:1012B000D508A093D608B093D7088DE29DE0A6E3A9
:1012C000B7EC8093D8089093D908A093DA08B0932C
:1012D000DB088BEF96EFAFE9BEE08093DC089093DC
:1012E000DD08A093DE08B093DF0880E195E09093DD
:1012F000CF088093CE0884EF94E0909311058093FB
:1013000010058EE794E09093F5048093F404909395
:10131000F7048093F6049093F9048093F804909373
:10132000FB048093FA049093FD048093FC04909353
:10133000FF048093FE049093010580930005909331
:101340000305809302052BEC38E0309305052093CC
:101350000405909307058093060526EC38E030934A
:1013600009052093080590930B0580930A05909337
:101370000D0580930C058BEB98E090930F058093FF
:101380000E0580EE98E0909315058093140580ED8E
:1013900098E0909313058093120582EE98E0909365
:1013A0001705809316058CE1EAEFF8E0DF011D9246
:1013B0008A95E9F785E6E7E6F8E0DF011D928A9570
:1013C000E9F7E2EEF4E082E1DF011D928A95E9F7A8
:1013D000F093E108E093E00880E190E09093E3046B
:1013E0008093E20482EF92E09093E5048093E4041A
:1013F00082ED92E09093E7048093E60486E492E025
:101400009093E9048093E8048AE092E09093EB04DF
:101410008093EA0481E08093BC0860911E03709180
:101420001F0380912003909121035AD3882361F0F8
:1014300060911E0370911F038091200390912103FE
:101440004FD381110CC013C060911E0370911F0314
:10145000809120039091210395D38111E9CF809051
:101460001E0390901F03A0902003B0902103809250
:101470006B0890926C08A0926D08B0926E0881E0A3
:1014800090E0A0E0B0E08093670890936808A09394
:101490006908B0936A0860E088E00E941B0210921D
:1014A0006F0810927008109271081092720881E013
:1014B0008093BD0860911A0370911B0380911C03F7
:1014C00090911D030DD3882361F060911A037091F0
:1014D0001B0380911C0390911D0302D381110CC04A
:1014E00013C060911A0370911B0380911C039091AB
:1014F0001D0348D38111E9CFC0901A03D0901B037C
:10150000E0901C03F0901D03C0927308D092740801
:10151000E0927508F0927608C12CD12C7601C39424
:10152000C0926F08D0927008E0927108F092720831
:1015300060E089E00E941B0261E0809112030E943A
:10154000FD1E61E0809116030E94FD1EC1E0C09364
:10155000BF08C092AF08D092B008E092B108F092F4
:10156000B20861E084E00E941B02C093BE08C092F2
:10157000AB08D092AC08E092AD08F092AE0861E002
:1015800085E00E941B02C093C108C092B708D092A8
:10159000B808E092B908F092BA0861E082E00E94CF
:1015A0001B02C093C008C092B308D092B408E09266
:1015B000B508F092B60861E083E00E941B02109229
:1015C000F708C093F808C093F9088091B60390918A
:1015D000B703A091B803B091B90380938F0890939B
:1015E0009008A0939108B09392088091BA039091CB
:1015F000BB03A091BC03B091BD038093930890936B
:101600009408A0939508B0939608809186039091D2
:101610008703A0918803B0918903809397089093E2
:101620009808A0939908B0939A088091A603909186
:10163000A703A091A803B091A90380939B0890935E
:101640009C08A0939D08B0939E08609142037091FE
:10165000430380914403909145030E942E326B0115
:101660007C0190D2811127C0C701B60139D2811106
:1016700022C020E030E040E85FE4C701B6010E94EC
:1016800048326B017C01962EAD2CBE2CCF2D20E074
:1016900030E0A9010E94593187FF11C0C701B6018E
:1016A00090580E94C53190958095709561957F4FB7
:1016B0008F4F9F4F0AC0912CA12CB12CC0E0692DF7
:1016C0007A2D8B2D9C2F0E94C5314C01AA24BB245E
:1016D0009B01222730786901E12CF12CDC01CB0140
:1016E0008C0D9D1DAE1DBF1DDC0199278827C80CE0
:1016F000D91CEA1CFB1C8C0D9D1DAE1DBF1D009747
:10170000A105B10561F08F3F2FEF9207A2072FE7E8
:10171000B20748F08EEF9FEFAFEFBFE704C082E85B
:1017200097EBA1E3B4E48093A3089093A408A0935B
:10173000A508B093A60883EA98E07BD820913E03E1
:1017400030913F0340914003509141030E948D33FB
:1017500020913A0330913B0340913C0350913D036B
:101760000E94F53060937708709378088093790829
:1017700090937A088091AE039091AF03A091B0034B
:10178000B091B10380939F089093A008A093A10803
:10179000B093A2086091660370916703809168031B
:1017A000909169030E942E326B017C01EBD1811173
:1017B00027C0C701B60194D1811122C020E030E0DA
:1017C00040E85FE4C701B6010E9448326B017C012A
:1017D000962EAD2CBE2CCF2D20E030E0A9010E942A
:1017E000593187FF11C0C701B60190580E94C53119
:1017F00090958095709561957F4F8F4F9F4F0AC050
:10180000912CA12CB12CC0E0692D7A2D8B2D9C2F11
:101810000E94C5314C01AA24BB249B0122273078A9
:101820006901E12CF12CDC01CB018C0D9D1DAE1D5D
:10183000BF1DDC0199278827C80CD91CEA1CFB1C9A
:101840008C0D9D1DAE1DBF1D0097A105B10561F05A
:101850008F3F2FEF9207A2072FE7B20748F08EEFD6
:101860009FEFAFEFBFE704C082E897EBA1E3B4E4DA
:101870008093A7089093A808A093A908B093AA08FA
:1018800087EA98E00E941904209162033091630373
:1018900040916403509165030E948D3320915E0353
:1018A00030915F0340916003509161030E94F530D5
:1018B00060937B0870937C0880937D0890937E08EA
:1018C0008091C3039091C403A091C503B091C60356
:1018D0008093C2089093C308A093C408B093C5082E
:1018E0008091CB039091CC03A091CD03B091CE0316
:1018F0008093C7089093C808A093C908B093CA08FA
:10190000CF91FF90EF90DF90CF90BF90AF909F90DE
:101910008F9008958091670890916808A091690858
:10192000B0916A080197A105B10561F482E090E0E9
:10193000A0E0B0E08093670890936808A0936908DE
:10194000B0936A0880916F0890917008A091710817
:10195000B09172080197A105B10561F482E090E0B1
:10196000A0E0B0E080936F0890937008A093710896
:10197000B09372088091AF089091B008A091B1081F
:10198000B091B2080197A105B10561F482E090E041
:10199000A0E0B0E08093AF089093B008A093B108A6
:1019A000B093B2088091AB089091AC08A091AD08BB
:1019B000B091AE080197A105B10561F482E090E015
:1019C000A0E0B0E08093AB089093AC08A093AD0882
:1019D000B093AE088091B7089091B808A091B9086B
:1019E000B091BA080197A105B10561F482E090E0D9
:1019F000A0E0B0E08093B7089093B808A093B9082E
:101A0000B093BA088091B3089091B408A091B5083A
:101A1000B091B6080197A105B10561F482E090E0AC
:101A2000A0E0B0E08093B3089093B408A093B50809
:101A3000B093B608089560E070E080E89FE70895ED
:101A400060E070E080E89FE7089560E070E080E883
:101A50009FEF089560E070E080E89FEF089560E0F8
:101A600070E080EC9FEF089560E070E080EC9FEF05
:101A70000895F5DF60932209709323098093240968
:101A800090932509F1DF60931609709317098093ED
:101A9000180990931909CFDF60931E0970931F09ED
:101AA0008093200990932109CBDF60931A097093EA
:101AB0001B0980931C0990931D09C7DF60932609B9
:101AC000709327098093280990932909C3DF6093B5
:101AD0002A0970932B0980932C0990932D0908955E
:101AE000CF92DF92EF92FF92CF936B017C01209116
:101AF0001E0930911F0940912009509121090E942F
:101B00005931C1E0882371F02091260930912709CD
:101B10004091280950912909C701B6010E94593105
:101B20008111C0E08C2FCF91FF90EF90DF90CF908C
:101B30000895CF92DF92EF92FF92CF936B017C01D9
:101B400020911A0930911B0940911C0950911D09DF
:101B50000E945931C1E0882371F020912A09309107
:101B60002B0940912C0950912D09C701B6010E9403
:101B700059318111C0E08C2FCF91FF90EF90DF9011
:101B8000CF900895CF93C1E09B01AC010E945931E1
:101B9000811101C0C0E08C2FCF910895CF93C1E097
:101BA0009B01AC010E945931811101C0C0E08C2F12
:101BB000CF910895EF92FF920F931F93CF93DF93EE
:101BC000DC01EA01F90114968D919C91159712960A
:101BD0000D911C911397080F191F288139811896B0
:101BE0004D915C9119974217530728F04D915C91E4
:101BF0001197452B39F17801E21AF30A18964D91A5
:101C00005C911997481B590B4E0D5F1D46175707DE
:101C100094F1A901460F571F40175107E0F0F182D8
:101C2000E082338322836E197F09758364831616DD
:101C300017061CF4382F292F02C030E020E036832D
:101C4000278313C018968D919C911997821B930B33
:101C50008617970784F0718360833383228315820C
:101C600014821782168288819981680F791F79837F
:101C7000688380E001C081E0DF91CF911F910F91D7
:101C8000FF90EF900895CF92DF92EF92FF92CF9363
:101C9000DF936B017C0184E48C9DE0018D9DD00D70
:101CA0001124C45EDA4F8AA99BA9009721F00E94F3
:101CB00077351BAA1AAA84E48C9DF0018D9DF00D46
:101CC0001124E45EFA4F86A997A9009711F00E94AB
:101CD000773584E48C9DF0018D9DF00D1124E45E38
:101CE000FA4F138A128A168A178A108E118E128E54
:101CF000138E148E158E168E178E10A211A281E0EF
:101D000090E093A382A315A214A216A217A210A674
:101D100011A613A612A615A614A616A617A610AAF3
:101D200011AA13AA12AA15AA14AA17AA16AA11AEC2
:101D300010AE12AE13AE14AE15AEDF01DE961D92DC
:101D40001D921D921C921397EE5BFF4F1182108221
:101D5000DF91CF91FF90EF90DF90CF9008950F9398
:101D60001F93CF93DF93EB01DC018D919C91FC01DC
:101D7000A681B781E881F98123E0EE0FFF1F2A9544
:101D8000E1F712962D913C911397E20FF31F00811A
:101D90001181AC85BD859D01220F331FDC01129698
:101DA0008D919C911397D901A80FB91F8D919C918A
:101DB00024813581232B19F461E070E002C062E0D8
:101DC00070E0689F9001699F300D789F300D11245D
:101DD00088859985289FB001299F700D389F700DC7
:101DE0001124EC81FD812E9FC0012F9F900D3E9FFD
:101DF000900D1124800F911FFA01918380837383CA
:101E00006283DF91CF911F910F9108952F923F929E
:101E10004F925F926F927F928F929F92AF92BF92FA
:101E2000CF92DF92EF92FF920F931F93CF93DF93A6
:101E300000D000D0CDB7DEB7DC011496ED91FC9157
:101E400015970190F081E02D808591859A83898393
:101E5000A281B381BC83AB83FB0181909190A1905F
:101E6000B1908F01C12CD12C7601C814D904EA0499
:101E7000FB040CF05FC0D80114964D905D906D90FE
:101E80007C90179718964D915D916D917C911B9761
:101E9000F8017096FE83ED83F801A081B18183E0A3
:101EA000AA0FBB1F8A95E1F7E981FA8182819381AC
:101EB000A80FB91F2D903C901197F8012485358506
:101EC000220F331F8B819C81280F391FF90100815C
:101ED000118114968D919C911597892B19F481E0AD
:101EE00090E002C082E090E0809F9001819F300DE1
:101EF000909F300D1124249F8001259F100D349F49
:101F0000100D1124249DC001259D900D349D900D30
:101F10001124A8016D817E81820D931D0E940F36D0
:101F20008D819E81080F191F9FEFC91AD90AE90AEE
:101F3000F90A9BCF26960FB6F894DEBF0FBECDBF31
:101F4000DF91CF911F910F91FF90EF90DF90CF9095
:101F5000BF90AF909F908F907F906F905F904F90C9
:101F60003F902F900895CF93DF93DB01AD52BC4F8C
:101F70002C91222369F024E4269FF001279FF00D85
:101F80001124E45EFA4FEF0119922A95E9F71C92A9
:101F900024E4269FF001279FF00D1124E45EFA4F00
:101FA0001482158216821782118610861386128675
:101FB000118A108A17861686DF91CF9164CE2F92F0
:101FC0003F924F925F926F927F928F929F92AF92C9
:101FD000BF92CF92DF92EF92FF920F931F93CF9316
:101FE000DF93CDB7DEB728970FB6F894DEBF0FBEEC
:101FF000CDBF6B017C011A0184E48C9D90018D9D05
:10200000300D1124245E3A4FF90184819581A68117
:10201000B781892B8A2B8B2B09F4B8C0A12CB12C4A
:10202000412C512C320138872F83C90104969A83A1
:102030008983D9011896BC83AB83E981FA818081B9
:102040009181A281B381481659066A067B0694F5F0
:10205000AB81BC81ED91FC91EA0DFB1D22813381A6
:102060008901812C912C82149304C4F4D801ED9140
:10207000FC91309769F0848195812D833E830E9485
:102080007735F801808191810E9477353E812D81DD
:10209000FFEF8F1A9F0A0E5F1F4FE5CFC9010E9405
:1020A00077358FEF481A580A680A780A94E0A90E23
:1020B000B11CC3CFAF81B88518968D919C911997AB
:1020C0000E947735EF81F88582859385892B59F1B8
:1020D000A12CB12C812C912C84E48C9D80018D9DB0
:1020E000100D11240A5D1A4F8214930484F4D80150
:1020F000ED91FC91EA0DFB1D848195810E9477355D
:10210000BFEF8B1A9B0AEEE0AE0EB11CEDCF84E45C
:102110008C9DF0018D9DF00D1124E45EFA4F8285B7
:1021200093850E94773584E48C9D90018D9D300DC0
:1021300011248901045E1A4FD80150968D919C910B
:1021400051970E947735F801868597850E947735EB
:10215000C701B60198DDC701B60128960FB6F894FD
:10216000DEBF0FBECDBFDF91CF911F910F91FF90CA
:10217000EF90DF90CF90BF90AF909F908F907F9027
:102180006F905F904F903F902F90EDCE28960FB6B6
:10219000F894DEBF0FBECDBFDF91CF911F910F919D
:1021A000FF90EF90DF90CF90BF90AF909F908F9077
:1021B0007F906F905F904F903F902F90089524E410
:1021C000269FF001279FF00D1124E45EFA4F8289CB
:1021D00093890497029758F485E090E0938B828B63
:1021E0008FEF9FEFDC01828F938FA48FB58F0895BF
:1021F0002F923F924F925F926F927F928F929F9217
:10220000AF92BF92CF92DF92EF92FF920F931F9304
:10221000CF93DF93CDB7DEB7E0970FB6F894DEBF6C
:102220000FBECDBF9AA389A31B016A012801390102
:1022300084E4849D8001859D100D11249801245E05
:102240003A4F7901D9014D925D926D927C9213972C
:10225000AB01C301B201B3DEF801E05EFA4FD60173
:102260004D915D916D917D918D01CA0140835183A6
:102270006283738364E070E00E94C834F701918741
:102280008087892B09F499C11E8E1D8E198E1A8E96
:102290001B8E1C8EF8A2EF8E97012C5F3F4F38A744
:1022A0002FA32C5F3F4F3AA729A7EFA1F8A5808164
:1022B0009181A281B381298D3A8D4B8D5C8D281738
:1022C00039074A075B070CF0E4C0A9A5BAA58D91B0
:1022D0009C912D8D3E8D280F391F3A8B298BD8016B
:1022E000ED91FC91EE0FFF1FA9A1BAA18D919C91D8
:1022F000E80FF91F80819181F90191838083D801D2
:1023000014962D913D914D915C9117972BA33CA371
:102310004DA35EA3085F1F4F62E070E0C1010E9401
:10232000C834E989FA8993838283892B09F445C1EA
:102330001D8A1E8A1F8A188E2D893E894F89588DC5
:102340008BA19CA1ADA1BEA1281739074A075B0745
:102350000CF08CC0D801ED90FC90EE0CFF1CE989CC
:10236000FA89C280D380CE0CDF1C68E070E081E087
:1023700090E00E94C834D6018D939C93E989FA8934
:1023800082819381FC01EE0DFF1DC080D180C114BC
:10239000D10409F412C1D80114964D915D916D914B
:1023A0007C911797CA01F60140835183628373833E
:1023B000085F1F4F64E070E00E94C834D601159694
:1023C0009C938E931497892B09F4F7C01C8A1B8A5F
:1023D000812C912C5401F60180819181A281B381DD
:1023E00088169906AA06BB06A4F5F601E480F580D6
:1023F0002B893C89E20EF31EF801DE01119680E183
:1024000001900D928A95E1F7005F1F4FA701BE0171
:102410006F5F7F4FA9A1BAA114968D919C911597DA
:102420009EDCF60126813781D70112968D919C9111
:102430001397820F931F97838683BFEF8B1A9B0A94
:10244000AB0ABB0A2B893C892C5F3F4F3C8B2B8B03
:10245000C2CF2D893E894F89588D2F5F3F4F4F4FF7
:102460005F4F2D8B3E8B4F8B588F66CF298D3A8DCA
:102470004B8D5C8D2F5F3F4F4F4F5F4F298F3A8FB2
:102480004B8F5C8F2D8D3E8D2C5F3F4F3E8F2D8F60
:102490000CCF6EE070E0C1010E94C834AF8DB8A1CE
:1024A0001B969C938E931A97812C912CA12CB12C66
:1024B000C12CD12C24E4249DC001259D900D112414
:1024C0009C012A5D3A4F3A8B298B21E030E0A2141F
:1024D000B3040CF04AC0D8014D915D916D917D918E
:1024E0008D01CA01E989FA89E080F180E80CF91CC4
:1024F00057FD63C0D70111963C932E930097A1F02E
:102500002FA738AB4BA75CA76DA77EA70E94E2342C
:10251000F701958384832FA538A94BA55CA56DA5EC
:102520007EA5892B31F449C0D70115961C921E92C5
:102530001497F7015383428384819581978386831F
:10254000918780871386128681E090E0452B462B89
:10255000472B11F480E090E0C80ED91EFFEFAF1AB0
:10256000BF0A4EE0840E911CB2CF84E4849D8001AA
:10257000859D100D1124045E1A4FD8011D961C92E2
:102580001E921C97C60133E0880F991F3A95E1F718
:102590000E94E234F801918B808B892B71F0C60187
:1025A000880F991F0E94E234D8011F969C938E9346
:1025B0001E97892B11F080E005C0A101C301B20173
:1025C000FEDC81E0E0960FB6F894DEBF0FBECDBF13
:1025D000DF91CF911F910F91FF90EF90DF90CF90FF
:1025E000BF90AF909F908F907F906F905F904F9033
:1025F0003F902F9008952F923F924F925F926F924B
:102600007F928F929F92AF92BF92CF92DF92EF9282
:10261000FF920F931F93CF93DF93CDB7DEB76897E9
:102620000FB6F894DEBF0FBECDBF9C8B8B8BDB014A
:1026300049015A0124E4289DC001299D900D1124CF
:102640009C01245E3A4F79012D913C911197F7013D
:10265000358B248BFC01EE5CFA4F14964D915D9105
:102660006D917C9117974083518362837383FC0142
:10267000EA5CFA4F18964D915D916D917C911B9794
:102680004083518362837383FC01E65CFA4F1C969E
:102690004D915D916D917C911F9740835183628331
:1026A0007383FC01E65BFA4F50965C91509751960C
:1026B0004C91519752963C91529753962C91539727
:1026C00050834183328323838D010C5E1F4F852FFE
:1026D000942F181619060CF068C0880F991F880FE0
:1026E000991F0E94E234D701D3969C938E93D29780
:1026F000892B09F4BCC0212C312C412C512C3201E6
:102700009701225D3F4F3E8B2D8B2C5F3F4F388FC3
:102710002F8B2E5F3F4F3A8B298BB301A2012FEFF6
:10272000421A520A620A720AED89FE8980819181F9
:10273000A281B381481759076A077B074CF5AF8917
:10274000B88DCD90DC90C20CD31CF801DE0111963F
:1027500080E101900D928A95E1F7005F1F4FA6017D
:10276000BE016F5F7F4FEB89FC8984819581F7DA29
:10277000A989BA898D919C911197F60122813381A3
:10278000820F931F8D939C93F4E02F0E311CC5CFC5
:10279000D701D4968D919C91D5970E94E234F70190
:1027A00097AB86AB892B09F462C0F80180819181D7
:1027B000A281B38124E4289DF001299DF00D11240C
:1027C000E45EFA4FAC01BD014D7F21E030E0452BC6
:1027D000462B472B11F020E030E033A322A324E462
:1027E000289DF001299DF00D1124E45EFA4F019718
:1027F000A109B10921E030E00297A105B10510F06F
:1028000020E030E035A324A384E4889DF001899D75
:10281000F00D1124CF018E5B9A4FD80114964D9183
:102820005D916D917C911797DC014D935D936D9354
:102830007C931397E45EFA4F868D978DA0A1B1A18A
:10284000B7FF10C0B095A095909581959F4FAF4F61
:10285000BF4F82AF93AFA4AFB5AF168E178E10A245
:1028600011A20AC012AE13AE14AE15AE05C0C5015A
:10287000B40109DA81E001C080E068960FB6F894EF
:10288000DEBF0FBECDBFDF91CF911F910F91FF90A3
:10289000EF90DF90CF90BF90AF909F908F907F9000
:1028A0006F905F904F903F902F900895CF92DF925E
:1028B000EF92FF92CF93DF931092A40524E4269F1A
:1028C000F001279FF00D1124E45EFA4F15A614A61F
:1028D00020E030E0C12CD12CDF011A96C1E0D0E01D
:1028E000C416D506D4F4ED91FC911197E20FF31FB5
:1028F000E280F3801E141F0454F4E480F580F78214
:10290000E682F186E08613861286D183C083EFEFDC
:10291000CE1ADE0A225F3F4FE3CF24E4269FF00168
:10292000279FF00D1124E45EFA4F13A612A611AEF4
:1029300010AEDF01DE961D921D921D921C92139720
:1029400082E090E0938B828BDF91CF91FF90EF90AC
:10295000DF90CF90089524E4269FF001279FF00D8B
:102960001124E45EFA4F138A128A29CB24E4269FAD
:10297000F001279FF00D1124E45EFA4F82899389BC
:1029800081309105C8F08530910518F0059769F000
:1029900008958FEF9FEFDC01828F938FA48FB58F07
:1029A00085E090E0938B828B08958FEF9FEFDC01A1
:1029B000828F938FA48FB58F089524E4249FF00114
:1029C000259FF00D1124E45EFA4F2EE0AC01249F08
:1029D000C001259F900D11240284F385E02DE80F9E
:1029E000F91F81E08093A405828593859187808774
:1029F000408551852681378181E090E04217530759
:102A000011F080E090E09183808308952F923F92AF
:102A10004F925F926F927F928F929F92AF92BF92EE
:102A2000CF92DF92EF92FF920F931F93CF93DF939A
:102A3000CDB7DEB7C255D1090FB6F894DEBF0FBED1
:102A4000CDBF21969FAF8EAF21974BA75CA76DA7F7
:102A50007EA74801590184E4889D8001899D100D5D
:102A60001124F801E45EFA4F2285338527963FAFA3
:102A70002EAF279782899389029709F060C186A5B6
:102A800097A5A0A9B1A9892B8A2B8B2B29F484E0C7
:102A900090E0938B828B53C18489958921964EADAA
:102AA0005FAD21974817590709F049C186A997A931
:102AB0009AAB89AB1EAE1DAE19AE1AAE1BAE1CAEE4
:102AC0008F01DF019E962996BFAFAEAF2997F29690
:102AD0002B96FFAFEEAF2B979801285C3F4F2D96BA
:102AE0003FAF2EAF2D97A8014A5D5F4F2F965FAF86
:102AF0004EAF2F97C801829661969FAF8EAF6197B8
:102B00001A976396BFAFAEAF63972996EEADFFAD50
:102B1000299780819181A281B38129AD3AAD4BADD6
:102B20005CAD281739074A075B070CF0E7C02B9606
:102B3000EEADFFAD2B97808191812DAD3EAD280F7D
:102B4000391F3EAB2DABD90112960D90BC91A02D33
:102B50002396BFAFAEAF2397B695A795B695A79529
:102B60002596BFAFAEAF25972D96EEADFFAD2D9755
:102B700080819181892B09F496C02F96AEADBFADAF
:102B80002F97CD90DD90ED90FC9029A83AA8F901FF
:102B90000190F081E02DF8ABEFA718AE1FAA8FA926
:102BA00098AD2596AEADBFAD25978A179B070CF063
:102BB0007AC06196AEADBFAD61978D919C91892B26
:102BC00069F1EFA5F8A94080518062807380A70168
:102BD0009601C301B2010E94443387FD0BC0A701D7
:102BE0009601D1016D917D918D919C910E945931F9
:102BF00087FD8CC0A7019601C301B2010E94443336
:102C0000181664F4A7019601F10160817181828137
:102C100093810E945931882309F478C06396AEAD40
:102C2000BFAD63978D919C91892B69F1EFA5F8A9B0
:102C30004080518062807380A7019601C301B20178
:102C40000E94593187FF0BC0A7019601D1016D91F8
:102C50007D918D919C910E94443387FF57C0A701BD
:102C60009601C301B2010E94593181110CC0A70124
:102C70009601F10160817181828193810E944433C8
:102C800018160CF443C02FA938AD2F5F3F4F38AF53
:102C90002FAB34E0230E311C4FA558A94C5F5F4F7A
:102CA00058AB4FA77CCFEDA9FEA960817181239617
:102CB0004EAD5FAD239789A99AA90E940F3625963C
:102CC0008EAD9FAD2597880F991F880F991F29A951
:102CD0003AA9280F391F3AAB29AB89AD9AADABADF4
:102CE000BCAD0196A11DB11D89AF9AAFABAFBCAF12
:102CF000ADADBEAD1496BEAFADAF07CF81E090E0F5
:102D0000D801D9969C938E93D89719C084E4889D56
:102D1000F001899DF00D1124E45EFA4F868D978DA8
:102D2000A0A1B1A1892B8A2B8B2B09F064C284E06E
:102D300090E0938B828B86AD97AD93A782A784E4B6
:102D4000889DF001899DF00D1124E45EFA4F82897F
:102D500093898230910571F482AD93ADA4ADB5AD88
:102D6000181619061A061B060CF04CC2CC24C39484
:102D7000D12C05C0049709F045C2C12CD12C8EE09E
:102D80002196EEADFFAD21978E9F70018F9FF00CC5
:102D9000112427962EAD3FAD2797E20EF31ED701E3
:102DA00012964D915C9113974115510509F42AC271
:102DB00016968D919C9117979AA789A7FE01319637
:102DC00084E1DF011D928A95E9F7898A9A8AAB8AA4
:102DD000BC8AC114D10409F457C084E4889DF00171
:102DE000899DF00D1124E45EFA4FDF01DE964D90CF
:102DF0005D906D907C9082AD93ADA4ADB5AD48165D
:102E000059066A067B0609F03FC0F70164817581A7
:102E10000084F185E02D84819581A681B7819C0194
:102E20008D8B9E8BAF8BB88F285F3F4F3E8B2D8B4A
:102E3000D70118968D919C911997280F391F1996D3
:102E40003C932E93189718968D919C911997460F45
:102E5000571F841B950B97FD06C0860F971F199669
:102E60009C938E93189784E4889DF001899DF00DC2
:102E70001124E65AFA4FB1E04B1A51086108710863
:102E800040825182628273829E012B5E3F4FAE016F
:102E9000475D5F4F64E170E0C7010E94DA0D082FC3
:102EA00010E00115110509F091C18CE090E0A0E05F
:102EB000B0E08D839E83AF83B8879E01235E3F4F32
:102EC000AE01475D5F4F64E070E0C7010E94DA0D1C
:102ED000082F10E00115110509F078C180E190E09C
:102EE000A0E0B0E08D839E83AF83B8874D8D5E8D6B
:102EF000BE01655D7F4F8F8D98A10E940F368BA11B
:102F00009CA1009761F06D8D7E8DEBE2F0E0EC0FFF
:102F1000FD1F6E0F7F1F49A15AA10E940F361DA2EF
:102F20001EA21FA218A621962EAD3FAD2197220FFB
:102F3000331F38AF2FAB24E4289DC001299D900D8D
:102F40001124845E9A4FAC014C5F5F4F5AAF49AF7A
:102F5000DC011896BEAFADAF2DA13EA14FA158A583
:102F600029AB3AAB4BAB5CABE9ADFAAD808191815B
:102F7000A281B381281739074A075B070CF0CFC03D
:102F8000ADADBEADED91FC9189A99AA9880F991FAD
:102F9000880F991FE80FF91FA081B1818C918823B8
:102FA00009F4AFC0833009F4ACC00280F381E02D96
:102FB0002FA938ADE20FF31F4081518158AB4FA7C5
:102FC000452B09F49EC089859A85AB85BC85019601
:102FD000A11DB11D89879A87AB87BC879E01235E9F
:102FE0003F4FAE01475D5F4F64E070E0C7010E9454
:102FF000DA0D90E0009709F0E8C08D819E81AF81E5
:10300000B8850496A11DB11D8D839E83AF83B887BB
:103010004D8D5E8DBE016B5D7F4F8F8D98A10E949F
:103020000F368BA19CA1009761F06D8D7E8DA5E27E
:10303000B0E0AC0FBD1F6A0F7B1F49A15AA10E94CF
:103040000F361EAA1DAA412C512C3201EFA5F8A95A
:1030500080819181A281B381481659066A067B0658
:103060000CF04FC0EFA5F8A9248035802DA93EA90A
:10307000220E331ED10112966D917C9113979E0101
:10308000235E3F4FAE01475D5F4FC7010E94DA0DDF
:1030900090E0009709F099C0F10182819381092E97
:1030A000000CAA0BBB0B4D815E816F817885840F6C
:1030B000951FA61FB71F8D839E83AF83B88760813E
:1030C00071814D8D5E8D8F8D98A10E940F368BA1E1
:1030D0009CA1009759F0D1016D917C912D8D3E8D71
:1030E000620F731F49A15AA10E940F36BFEF4B1AFE
:1030F0005B0A6B0A7B0AEDA9FEA93496FEABEDAB29
:10310000A5CF49A85AA86BA87CA8FFEF4F1A5F0A61
:103110006F0A7F0A4DA25EA26FA278A61DCF898595
:103120009A85AB85BC85892B8A2B8B2B09F44EC0E5
:103130008AE190E0A0E0B0E089839A83AB83BC830E
:1031400021962EAD3FAD2197C901330FAA0BBB0BC2
:103150008D879E87AF87B88B4D895E89BE016F5F73
:103160007F4F8F89988D0E940F368B8D9C8D009795
:1031700061F06D897E8941E050E04C0F5D1F640F66
:10318000751F498D5A8D0E940F3689A59AA5D701C2
:1031900017969C938E93169711961C921E92CD288B
:1031A00089F184E4889DF001899DF00D1124E65A8F
:1031B000FA4F80819181A281B3810196A11DB11D39
:1031C00080839183A283B3831DC08C01CD28D1F469
:1031D000012BC1F084E4889DF001899DF00D11243C
:1031E000E45EFA4F81E090E095A784A785E090E047
:1031F000938B828B07C083E090E0938B828B81E07E
:1032000090E09BCDCE5ADF4F0FB6F894DEBF0FBED5
:10321000CDBFDF91CF911F910F91FF90EF90DF9085
:10322000CF90BF90AF909F908F907F906F905F9066
:103230004F903F902F900895CF92DF92EF92FF92A0
:103240000F931F936B017C0184E48C9DF0018D9D95
:10325000F00D1124E45EFA4F82899389009709F4F6
:1032600050C00197B9F482A593A59C012F5F3F4FF1
:1032700033A722A7092E000CAA0BBB0B028D138DBE
:10328000248D358D80179107A207B307D1F5C701AB
:10329000B6010CDB84E48C9DF0018D9DF00D1124B2
:1032A000E45EFA4F82899389039759F582A593A525
:1032B0009C012F5F3F4F33A722A7092E000CAA0BBA
:1032C000BB0B468D578D60A171A184179507A6078A
:1032D000B707BCF086AD97AD93A782A784E090E0D6
:1032E000938B828B82AD93ADA4ADB5AD1816190644
:1032F0001A061B0634F4EE5BFF4F81E090E09183E9
:1033000080831F910F91FF90EF90DF90CF900895F1
:1033100024E4269FF001279FF00D1124E45EFA4F6C
:10332000828993890497B1F482A593A5019693A706
:1033300082A7092E000CAA0BBB0B46895789608D0A
:10334000718D84179507A607B70721F485E090E0F3
:10335000938B828B08952F923F924F925F926F9240
:103360007F928F929F92AF92BF92CF92DF92EF9215
:10337000FF920F931F93CF93DF93CDB7DEB72C97B8
:103380000FB6F894DEBF0FBECDBF49835A836B835F
:103390007C834901442E552E24E4249DF001259D73
:1033A000F00D1124E45EFA4F22893389245031094B
:1033B000158614862230310508F0DAC0DC0111963A
:1033C0001C921E9213961C921E921297A12CB12C45
:1033D00060E070E09F01265F3F4F3E832D837F01B9
:1033E0003CE0E30EF11CDF015096B887AF839F01EC
:1033F000225F3F4F3A872987681579050CF06CC02A
:10340000ED81FE81A081B1819D012A0D3B1D3C878C
:103410002B87D9012D913C911197232B09F056C090
:1034200018960D911C91199712962D903C90139718
:1034300016962D913C911797F70140815181DA0141
:10344000E3E0AA0FBB1FEA95E1F7EF81F885C080A2
:10345000D180FD01EC0DFD1D440F551FA985BA85D6
:10346000CD90DC904C0D5D1DDA016D937C93D701FE
:103470004D915C9111974F5F5F4F4D935C93138318
:103480000283AB85BC851B963C932E931A9702173B
:10349000130748F4201B310B3183208315821482DB
:1034A0001782168213C0AB85BC851496CD90DC9034
:1034B0001597A601420D531D401B510B51834083AC
:1034C0002C193D0935832483D782C6826F5F7F4FD5
:1034D000BEE0AB0EB11C90CF24E4249D8001259D5D
:1034E000100D1124045E1A4FF80124853585DC0186
:1034F00011963C932E934089518913965C934E9379
:1035000012974685578515965C934E931497232BF7
:10351000A1F582899389059781F51092A405828D82
:10352000938DA48DB58DAE014F5F5F4F64E070E069
:103530008F3F9F4FAF4FBF4F59F480E290E00E9402
:10354000622869817A818B819C81A40104DA15C08B
:103550008FE190E00E946228D8019B961C921E92F7
:103560009A9781E090E053969C938E93529705C072
:10357000FC0111821082138212822C960FB6F894ED
:10358000DEBF0FBECDBFDF91CF911F910F91FF9096
:10359000EF90DF90CF90BF90AF909F908F907F90F3
:1035A0006F905F904F903F902F900895EF92FF9211
:1035B0000F931F93CF93DF937C018B01EA010E944D
:1035C000E528811121C08091D5039091D6030497FD
:1035D00011F183E090E09093D6038093D5031BC054
:1035E00098819111F0CF28ED38EB45E050E060E094
:1035F00070E0CB010E946F2BAE01B801C7010E94A1
:103600007D2BC8010E94482B8091A5059091A605AD
:10361000892B31F3D8CFDF91CF911F910F91FF907C
:10362000EF900895CF93DF932091D5033091D60387
:103630002430310541F0EB010E947D2BCE01DF915A
:10364000CF910C94482BDF91CF9108950C947B2F50
:103650000C94702F0C945E2F0C94582B0C94022F0A
:10366000089560E070E080E090E00C94C028089538
:10367000AF92BF92CF92DF92EF92FF920F931F9380
:10368000CF93DF931F921F92CDB7DEB75C01690124
:103690007A018B0180E090E0C114D104E104F104CF
:1036A000F1F0C114D10421E0E206F10410F4A60106
:1036B00002C04FEF5FEF9E012F5F3F4FB801C50182
:1036C0000E941E308F3F2FEF920749F029813A81E7
:1036D000C21AD30AE108F108020F131FDDCF0F90C1
:1036E0000F90DF91CF911F910F91FF90EF90DF909E
:1036F000CF90BF90AF900895089508951F920F92B4
:103700000FB60F9211240BB60F922F933F934F9346
:103710005F936F937F938F939F93AF93BF93EF9339
:10372000FF93E091DB03F091DC031995FF91EF919A
:10373000BF91AF919F918F917F916F915F914F91C9
:103740003F912F910F900BBE0F900FBE0F901F90C7
:1037500018951F920F920FB60F9211240BB60F926D
:103760002F933F934F935F936F937F938F939F9389
:10377000AF93BF93EF93FF93E091DD03F091DE03EE
:103780001995FF91EF91BF91AF919F918F917F918B
:103790006F915F914F913F912F910F900BBE0F90C2
:1037A0000FBE0F901F9018951F920F920FB60F9299
:1037B00011240BB60F922F933F934F935F936F9308
:1037C0007F938F939F93AF93BF93EF93FF93E0917A
:1037D000DF03F091E0031995FF91EF91BF91AF9155
:1037E0009F918F917F916F915F914F913F912F9119
:1037F0000F900BBE0F900FBE0F901F9018951F9249
:103800000F920FB60F9211240BB60F922F933F9386
:103810004F935F936F937F938F939F93AF93BF93D8
:10382000EF93FF93E091E103F091E2031995FF918B
:10383000EF91BF91AF919F918F917F916F915F9128
:103840004F913F912F910F900BBE0F900FBE0F9095
:103850001F9018951F920F920FB60F9211240BB65E
:103860000F922F933F934F935F936F937F938F9319
:103870009F93AF93BF93EF93FF93E091D703F091A2
:10388000D8031995FF91EF91BF91AF919F918F91BF
:103890007F916F915F914F913F912F910F900BBE50
:1038A0000F900FBE0F901F9018951F920F920FB69A
:1038B0000F9211240BB60F922F933F934F935F9368
:1038C0006F937F938F939F93AF93BF93EF93FF93E8
:1038D000E091D903F091DA031995FF91EF91BF912F
:1038E000AF919F918F917F916F915F914F913F9198
:1038F0002F910F900BBE0F900FBE0F901F90189539
:103900001F920F920FB60F9211240BB60F922F93A6
:103910003F934F935F936F937F938F939F93AF9357
:10392000BF93EF93FF93E091E303F091E4031995C4
:10393000FF91EF91BF91AF919F918F917F916F9187
:103940005F914F913F912F910F900BBE0F900FBE43
:103950000F901F9018951F920F920FB60F9211247F
:103960000BB60F922F933F934F935F936F937F9379
:103970008F939F93AF93BF93EF93FF93E091E503F2
:10398000F091E6031995FF91EF91BF91AF919F914F
:103990008F917F916F915F914F913F912F910F90F8
:1039A0000BBE0F900FBE0F901F9018951F920F9295
:1039B0000FB60F9211242F933F938F939F93AF9342
:1039C000BF938091A8059091A905A091AA05B091F7
:1039D000AB053091A70523E0230F2D3720F4019686
:1039E000A11DB11D05C026E8230F0296A11DB11D22
:1039F0002093A7058093A8059093A905A093AA05F5
:103A0000B093AB058091AC059091AD05A091AE054A
:103A1000B091AF050196A11DB11D8093AC059093A7
:103A2000AD05A093AE05B093AF05BF91AF919F9147
:103A30008F913F912F910F900FBE0F901F9018956F
:103A40003FB7F8948091AC059091AD05A091AE057B
:103A5000B091AF0526B5A89B05C02F3F19F0019680
:103A6000A11DB11D3FBFBA2FA92F982F8827820F04
:103A7000911DA11DB11DBC01CD0142E0660F771F54
:103A8000881F991F4A95D1F708958F929F92AF9200
:103A9000BF92CF92DF92EF92FF926B017C01D0DF59
:103AA0004B015C01C114D104E104F104F1F024DE06
:103AB000C7DFDC01CB0188199909AA09BB09883E37
:103AC0009340A105B10570F321E0C21AD108E108C5
:103AD000F10888EE880E83E0981EA11CB11CC11469
:103AE000D104E104F10421F7DDCFFF90EF90DF90E6
:103AF000CF90BF90AF909F908F900895789484B5A9
:103B0000826084BD84B5816084BD85B5826085BDD9
:103B100085B5816085BDEEE6F0E0808181608083BF
:103B2000E1E8F0E0108280818260808380818160A2
:103B30008083E0E8F0E0808181608083E1EBF0E069
:103B4000808184608083E0EBF0E08081816080830D
:103B5000E1E9F0E080818260808380818160808300
:103B6000E0E9F0E0808181608083E1EAF0E080813B
:103B700082608083808181608083E0EAF0E08081E0
:103B800081608083E1E2F1E08081826080838081D6
:103B900081608083E0E2F1E0808181608083EAE7F8
:103BA000F0E0808184608083808182608083808176
:103BB000816080838081806880831092C100089535
:103BC0001F93CF93DF93182FEB0161E016D120975D
:103BD00011F460E004C0CF3FD10531F461E0812FE2
:103BE000DF91CF911F9145C1E12FF0E0EA55FE4FE3
:103BF000E4914E2F50E0FA013197E231F10508F0DF
:103C00009DC08827EE58FF4F8F4F0C94933484B596
:103C1000806884BDC7BD97C084B5806284BDC8BDBF
:103C200092C080918000806880938000D09389004A
:103C3000C093880088C0809180008062809380005B
:103C4000D0938B00C0938A007EC0809180008860F2
:103C500080938000D0938D00C0938C0074C08091BD
:103C6000B00080688093B000C093B3006CC08091B6
:103C7000B00080628093B000C093B40064C08091B3
:103C80009000806880939000D0939900C093980032
:103C90005AC080919000806280939000D0939B00E6
:103CA000C0939A0050C080919000886080939000EB
:103CB000D0939D00C0939C0046C08091A000806876
:103CC0008093A0008091A0008F7B8093A000D09370
:103CD000A900C093A80037C08091A00080628093A3
:103CE000A000D093AB00C093AA002DC08091A0008B
:103CF00088608093A000D093AD00C093AC0023C037
:103D000080912001806880932001D0932901C09385
:103D1000280119C080912001806280932001D093F6
:103D20002B01C0932A010FC08091200188608093ED
:103D30002001D0932D01C0932C0105C0C038D105BE
:103D40000CF04CCF46CFDF91CF911F91089590E0BA
:103D5000FC013197E231F10508F04EC08827EC579D
:103D6000FF4F8F4F0C949334809180008F7703C066
:103D7000809180008F7D80938000089580918000E5
:103D8000877FF9CF84B58F7702C084B58F7D84BDDE
:103D900008958091B0008F7703C08091B0008F7D2F
:103DA0008093B0000895809190008F7707C0809134
:103DB00090008F7D03C080919000877F809390005A
:103DC00008958091A0008F7707C08091A0008F7D1B
:103DD00003C08091A000877F8093A0000895809108
:103DE00020018F7707C0809120018F7D03C08091D3
:103DF0002001877F809320010895CF93DF9390E087
:103E0000FC01E451FE4F2491FC01EE5CFD4F8491D6
:103E1000882361F190E0880F991FFC01E455FD4F64
:103E2000C591D491FC01EE56FD4FA591B49161115D
:103E300009C09FB7F8948881209582238883EC91EC
:103E40002E230BC0623061F49FB7F8943881822F23
:103E5000809583238883EC912E2B2C939FBF06C0E3
:103E60008FB7F894E8812E2B28838FBFDF91CF91F5
:103E700008951F93CF93DF93282F30E0F901EA557F
:103E8000FE4F8491F901E451FE4FD491F901EE5CAB
:103E9000FD4FC491CC23C1F0162F811158DFEC2FB8
:103EA000F0E0EE0FFF1FEE56FD4FA591B4918FB7D6
:103EB000F894111105C09C91ED2FE095E92302C003
:103EC000EC91ED2BEC938FBFDF91CF911F91089573
:103ED000CF93DF93282F30E0F901EA55FE4F84910C
:103EE000F901E451FE4FD491F901EE5CFD4FC4910C
:103EF000CC2389F081112BDFEC2FF0E0EE0FFF1FB8
:103F0000E858FD4FA591B491EC91ED2381E090E04C
:103F100021F480E002C080E090E0DF91CF9108952D
:103F2000FC01918D228D892F90E0805C9F4F821B38
:103F300091098F7399270895FC01918D828D9817AF
:103F400031F0828DE80FF11D858D90E008958FEF9F
:103F50009FEF0895FC01918D828D981761F0828DFD
:103F6000DF01A80FB11D5D968C91928D9F5F9F73AD
:103F7000928F90E008958FEF9FEF0895FC01848D5C
:103F8000DF01A80FB11DA35ABF4F2C91848D90E083
:103F900001968F739927848FA689B7892C93A0895E
:103FA000B1898C9180648C93938D848D981306C015
:103FB0000288F389E02D80818F7D80830895CF93DF
:103FC000DF93EC01888D8823C1F0EA89FB89808129
:103FD00085FD05C0A889B9898C9186FD0EC00FB6F4
:103FE00007FCF5CF808185FFF2CFA889B9898C9134
:103FF00085FFEDCFCE01C2DFE8CFDF91CF910895ED
:10400000EF92FF920F931F93CF93DF93EC0181E028
:10401000888F9B8D8C8D981305C0E889F9898081E4
:1040200085FD23C0F62E0B8D10E00F5F1F4F0F7321
:104030001127E02E8C8DE8120BC00FB607FCFACFCB
:10404000E889F989808185FFF5CFCE0197DFF2CF2E
:104050008B8DFE01E80FF11DE35AFF4FF0820B8FAD
:10406000EA89FB898081806207C0EE89FF896083CD
:10407000E889F98980818064808381E090E0DF9124
:10408000CF911F910F91FF90EF900895CF92DF9203
:10409000EF92FF921F93CF93DF93EC016A017B01B4
:1040A000122FE889F98982E080834115514E61051C
:1040B0007105B1F060E079E08DE390E0A701960131
:1040C0000E947134DA01C9010197A109B109B695BD
:1040D000A79597958795AC01411580E15807A8F001
:1040E000E889F989108260E874E88EE190E0A70120
:1040F00096010E947134BA01A90141505109610928
:1041000071097695679557954795EC85FD855083A0
:10411000EE85FF854083188EEC89FD891083EA893E
:10412000FB89808180618083EA89FB898081886046
:104130008083EA89FB89808180688083EA89FB89A2
:1041400080818F7D8083DF91CF911F91FF90EF90D1
:10415000DF90CF9008951F920F920FB60F92112407
:104160000BB60F922F938F939F93EF93FF93E09152
:10417000C005F091C1058081E091C605F091C705A9
:1041800082FD12C090818091C9058F5F8F7320914D
:10419000CA05821751F0E091C905F0E0E055FA4FE9
:1041A000958F8093C90501C08081FF91EF919F9108
:1041B0008F912F910F900BBE0F900FBE0F901F90FD
:1041C00018951F920F920FB60F9211240BB60F92F3
:1041D0002F933F934F935F936F937F938F939F930F
:1041E000AF93BF93EF93FF9380EB95E0C7DEFF9112
:1041F000EF91BF91AF919F918F917F916F915F915F
:104200004F913F912F910F900BBE0F900FBE0F90CB
:104210001F901895E0EBF5E01382128288EE93E090
:10422000A0E0B0E084839583A683B78385E894E01B
:104230009183808385EC90E09587848784EC90E07F
:104240009787868780EC90E0918B808B81EC90E063
:10425000938B828B82EC90E0958B848B86EC90E044
:10426000978B868B118E128E138E148E08951F924B
:104270000F920FB60F9211240BB60F922F938F93BC
:104280009F93EF93FF93E0915D06F0915E0680812E
:10429000E0916306F091640682FD12C090818091E6
:1042A00066068F5F8F7320916706821751F0E09149
:1042B0006606F0E0E35BF94F958F8093660601C0D8
:1042C0008081FF91EF919F918F912F910F900BBE65
:1042D0000F900FBE0F901F9018951F920F920FB660
:1042E0000F9211240BB60F922F933F934F935F932E
:1042F0006F937F938F939F93AF93BF93EF93FF93AE
:104300008DE496E03BDEFF91EF91BF91AF919F91DD
:104310008F917F916F915F914F913F912F910F906E
:104320000BBE0F900FBE0F901F901895EDE4F6E0B6
:104330001382128288EE93E0A0E0B0E0848395833C
:10434000A683B78385E894E0918380838DEC90E029
:10435000958784878CEC90E09787868788EC90E03F
:10436000918B808B89EC90E0938B828B8AEC90E030
:10437000958B848B8EEC90E0978B868B118E128EB2
:10438000138E148E08951F920F920FB60F92112460
:104390000BB60F922F938F939F93EF93FF93E09120
:1043A000FA06F091FB068081E0910007F091010789
:1043B00082FD12C09081809103078F5F8F732091DF
:1043C0000407821751F0E0910307F0E0E651F94F3E
:1043D000958F8093030701C08081FF91EF919F919A
:1043E0008F912F910F900BBE0F900FBE0F901F90CB
:1043F00018951F920F920FB60F9211240BB60F92C1
:104400002F933F934F935F936F937F938F939F93DC
:10441000AF93BF93EF93FF938AEE96E0AFDDFF91EA
:10442000EF91BF91AF919F918F917F916F915F912C
:104430004F913F912F910F900BBE0F900FBE0F9099
:104440001F901895EAEEF6E01382128288EE93E050
:10445000A0E0B0E084839583A683B78385E894E0E9
:104460009183808385ED90E09587848784ED90E04B
:104470009787868780ED90E0918B808B81ED90E02F
:10448000938B828B82ED90E0958B848B86ED90E010
:10449000978B868B118E128E138E148E08951F9219
:1044A0000F920FB60F9211240BB60F922F938F938A
:1044B0009F93EF93FF93E0919707F0919807808186
:1044C000E0919D07F0919E0782FD12C0908180913E
:1044D000A0078F5F8F732091A107821751F0E091A1
:1044E000A007F0E0E957F84F958F8093A00701C02F
:1044F0008081FF91EF919F918F912F910F900BBE33
:104500000F900FBE0F901F9018951F920F920FB62D
:104510000F9211240BB60F922F933F934F935F93FB
:104520006F937F938F939F93AF93BF93EF93FF937B
:1045300087E897E023DDFF91EF91BF91AF919F91C5
:104540008F917F916F915F914F913F912F910F903C
:104550000BBE0F900FBE0F901F901895E7E8F7E085
:104560001382128288EE93E0A0E0B0E0848395830A
:10457000A683B78385E894E09183808385E391E007
:104580009587848784E391E09787868780E391E02D
:10459000918B808B81E391E0938B828B82E391E01E
:1045A000958B848B86E391E0978B868B118E128E90
:1045B000138E148E08958F929F92AF92BF92CF92D6
:1045C000DF92EF92FF920F931F93CF93DF937C01C3
:1045D0008B016C0182E0C80ED11C4701E5E08E0E14
:1045E000911CC0E0D0E0F60161916F014AE050E01B
:1045F000C801C6D05C016EE2C80167D08A0D9B1D60
:10460000C80FD91FC814D90471F74AE050E0F70168
:104610006581C801B5D08C0F9D1FDF91CF911F918F
:104620000F91FF90EF90DF90CF90BF90AF909F9051
:104630008F900895E4E2F8E085E994E09183808327
:1046400012821382148215820895CF92DF92EF9224
:10465000FF920F931F93CF93DF936C017A018B012D
:10466000C0E0D0E0CE15DF0589F0D8016D918D0155
:10467000D601ED91FC910190F081E02DC6011995D4
:10468000892B11F47E0102C02196ECCFC701DF9186
:10469000CF911F910F91FF90EF90DF90CF900895F1
:1046A0006115710579F0FB0101900020E9F7319760
:1046B000AF01461B570BDC01ED91FC910280F381A9
:1046C000E02D199480E090E00895DC01ED91FC91DB
:1046D0000190F081E02D19944F925F926F927F923A
:1046E000EF92FF920F931F93CF93DF93CDB7DEB777
:1046F000A1970FB6F894DEBF0FBECDBF7C01FA01C3
:10470000CB0119A2223008F42AE08E010F5D1F4F61
:10471000422E512C612C712CBF01A30192010E94E9
:104720007134F901CA01015011096A3014F4605D55
:1047300001C0695CD8016C93232B242B252B61F7D6
:10474000B801C701ADDFA1960FB6F894DEBF0FBE6A
:10475000CDBFDF91CF911F910F91FF90EF907F9090
:104760006F905F904F9008952115310541F4DC0161
:10477000ED91FC910190F081E02D642F1994ACCF64
:104780009A01462F50E060E070E0EECF8230A9F051
:1047900028F4882349F0813051F00895843021F1C4
:1047A000E8F0853039F1089510926E0008958091F7
:1047B0006F008D7F80936F000895809170008D7FD2
:1047C0008093700081E08093B0008091B100887F79
:1047D00084608093B1001092B300089580917100BD
:1047E0008D7F809371000895809172008D7F8093FA
:1047F00072000895809173008D7F809373000895F7
:10480000CF93C82F8091E7038C1307C0E6ECF2E04A
:10481000E4918FEF8093E70301C0EFEF8E2FB6DFB7
:1048200060E08C2FCF9125CB1F920F920FB60F9285
:1048300011240BB60F922F933F934F935F936F9377
:104840007F938F939F93AF93BF93EF93FF93809149
:104850002D0890912E08A0912F08B0913008892B37
:104860008A2B8B2B51F180912A08E0912B08F09133
:104870002C0890818927808380912D0890912E08A3
:10488000A0912F08B0913008181619061A061B06B9
:10489000BCF480912D0890912E08A0912F08B09122
:1048A00030080197A109B10980932D0890932E0833
:1048B000A0932F08B093300803C08091E703A0DFD6
:1048C000FF91EF91BF91AF919F918F917F916F91E8
:1048D0005F914F913F912F910F900BBE0F900FBEA4
:1048E0000F901F90189540E855E260E070E080E07E
:1048F00090E000C08130910571F01CF4892B39F0F3
:1049000008958230910559F0039769F0089526E0E3
:1049100080EB95E00BC026E08DE496E007C026E032
:104920008AEE96E003C026E087E897E0AFCB0895D3
:10493000CF92DF92EF92FF920F931F9381D86093F3
:1049400031087093320880933308909334080091B3
:1049500035081091360820913708309138086B01DE
:104960007C01C01AD10AE20AF30A48EEC41643E0F9
:10497000D406E104F10448F16093350870933608D9
:1049800080933708909338080E94583059D8009186
:104990003508109136082091370830913808DC012D
:1049A000CB01801B910BA20BB30B883E9340A1055A
:1049B000B10538F081E090E0909366088093650837
:1049C00004C0109266081092650881E01F910F9153
:1049D000FF90EF90DF90CF9008956F927F928F922B
:1049E0009F92AF92BF92CF92DF92EF92FF920F937E
:1049F0001F93CF93DF935C017B014A0101E010E03C
:104A00000E151F0564F568018FEFC81AD80AE80172
:104A1000CC0FDD1FC80DD91D688079806114710429
:104A2000E1F067E974E0C3010E941F36892B19F495
:104A30001982188212C06AE974E0C3010E941F360D
:104A4000892B59F4CE14DF0441F06801E2E0CE0E68
:104A5000D11C198218821B821A828601D1CF81E073
:104A6000F5018083B401C7010E94A62FF50192834E
:104A7000818380E090E0DF91CF911F910F91FF90B3
:104A8000EF90DF90CF90BF90AF909F908F907F90EE
:104A90006F90089589E398E0089580E008950F935A
:104AA0001F93CF93DF938B01BA01E901198218821A
:104AB0009801012E000C440B550BFC018181928161
:104AC0000E94381B019621F01983088380E001C001
:104AD00081E0DF91CF911F910F9108950F931F9364
:104AE000CF93DF931F921F92CDB7DEB7FB018A01F0
:104AF000B9019E012F5F3F4FAF01FC01818192817F
:104B00000E94BF2F019639F089819A81F801918323
:104B1000808380E001C081E00F900F90DF91CF9102
:104B20001F910F910895FC018081089508950895C3
:104B300081E0FB01808380E008950895109263086E
:104B40000895FC01818192810C949D2FCF93DF9376
:104B5000CDB7DEB72A970FB6F894DEBF0FBECDBF34
:104B6000AC01CB0160E070E049835A836B837C83A6
:104B7000092E000CAA0BBB0B8D839E83AF83B887D5
:104B80009E01275F3F4FAE014F5F5F4F68E070E0CF
:104B900080915C0890915D0882DF811108C081E0FE
:104BA00029853A852830310519F480E001C081E07B
:104BB0002A960FB6F894DEBF0FBECDBFDF91CF911E
:104BC00008950F931F93CF93DF931F921F92CDB73A
:104BD000DEB78B019E012F5F3F4FAC0180915C08D7
:104BE00090915D085CDF811108C081E029813A81E4
:104BF0002017310719F480E001C081E00F900F9079
:104C0000DF91CF911F910F910895CF93DF93EC0126
:104C10001092600810925F0810926208109261086A
:104C2000AC0160E070E0CB010E94AB14AE0161E02A
:104C300070E080E090E00E94AB1480915C0890915D
:104C40005D08DF91CF9179CF4F925F926F927F9203
:104C50008F929F92AF92BF92CF92DF92EF92FF928C
:104C60000F931F93CF93DF931F921F92CDB7DEB7A1
:104C70009C016C0197FF03C087E0C80ED11C43E084
:104C8000D594C7944A95E1F7C90168E070E00E94A5
:104C90005E348C017901E2E0EE0EF11C80915A083D
:104CA00090915B088E159F050CF092C0809158087A
:104CB00090915908009731F00E94773510925B0867
:104CC00010925A08C7010E94E234909359088093C9
:104CD0005808892B29F0F0925B08E0925A0878C0B6
:104CE000412C512C3201A12CB12CAC14BD040CF47C
:104CF000AAC10115110509F48AC1E12CF12C680142
:104D00002FEFC21AD20A580182E0A80EB11C045C2F
:104D1000174FCE14DF040CF47AC19701245C374F8F
:104D2000AE014F5F5F4F61E070E080915C08909151
:104D30005D08D4DE81116BC189819A81EFEF4E1A33
:104D40005E0A6E0A7E0AF0E94F16FFE55F06F1E0A3
:104D50006F0671041CF4E80EF91E0CC06091610826
:104D6000709162088DEE90E0F1DE412C512C320101
:104D7000E12CF12CEA14FB0461F6A60160E070E07E
:104D80008CE398E00E944A3060916108709162085B
:104D90008823A9F0F801808190E06817790709F06D
:104DA000B8CF8EEE90E0D2DE8091610890916208DB
:104DB000019699279093620880936108AACF8FEE9D
:104DC00090E0C4DE412C512C3201E12CF12CA1CF1A
:104DD000E12CF12CEC14FD040CF078C0412C512C8A
:104DE0003201A12CB12C470193E0880C991C9A95B3
:104DF000E1F72091580830915908C4018A0D9B1D94
:104E0000280F391FAE014F5F5F4F61E070E0809166
:104E10005C0890915D0862DE8111F9C089819A81F8
:104E2000FFEF4F1A5F0A6F0A7F0A20E942162FE54B
:104E3000520621E0620671043CF0609161087091B5
:104E400062088DEE90E035C0A80EB91E8AE0A81663
:104E5000B104B1F549E050E0B40180915808909157
:104E600059080E944A306091610870916208882355
:104E7000F1F08091580890915908FC01E80DF91D56
:104E8000808590E06817790709F0A4CF8EEE90E056
:104E90005DDE809161089091620801969927909358
:104EA000620880936108EFEFEE1AFE0A93CF8FEE4F
:104EB00090E04CDE412C512C3201A12CB12C99CF29
:104EC000FAE0AF16B1040CF494CF84CF01151105AC
:104ED00009F47EC083E0EE0CFF1C8A95E1F74701E0
:104EE000800E911E412C512C3201C12CD12C580125
:104EF0002FEFA21AB20A0E5F1F4FAC14BD040CF4C0
:104F000067C02091580830915908C6018E0D9F1D29
:104F1000280F391FAE014F5F5F4F61E070E0809155
:104F20005C0890915D08DADD811171C089819A81F8
:104F3000EFEF4E1A5E0A6E0A7E0AF0E94F16FFE5A1
:104F40005F06F1E06F0671041CF4C80ED91E0CC098
:104F500060916108709162088DEE90E0F7DD412C60
:104F6000512C3201C12CD12CC016D10631F6A5012D
:104F7000B70180915808909159080E944A30609179
:104F80006108709162088823D1F0E0915808F0918F
:104F90005908E80DF91D808190E06817790709F03C
:104FA000ACCF8EEE90E0D2DD8091610890916208E6
:104FB0000196992790936208809361089ECF8FEEA7
:104FC00090E0C4DD412C512C3201C12CD12C95CF65
:104FD000809158089091590862C0E80EF91E8AE045
:104FE000E816F10499F1FAE0EF16F1040CF07DCE29
:104FF0009701245C374FAE014F5F5F4F61E070E077
:1050000080915C0890915D0869DD882319F080E04B
:1050100090E045C089819A81FFEF4F1A5F0A6F0ABD
:105020007F0A20E942162FE5520621E0620671044C
:10503000A4F260916108709162088DEE90E086DDC7
:10504000412C512C3201E12CF12CD2CF49E050E01F
:1050500060E070E08CE398E00E944A306091610863
:10506000709162088823C1F08091440890E068172D
:10507000790709F03ACE8EEE90E068DD8091610804
:105080009091620801969927909362088093610835
:10509000EFEFAE1ABE0A29CE8FEE90E0D0CF0F9080
:1050A0000F90DF91CF911F910F91FF90EF90DF90C4
:1050B000CF90BF90AF909F908F907F906F905F90B8
:1050C0004F900895CF92DF92EF92FF920F931F932C
:1050D000CF93DF931F92CDB7DEB76C017B018A01BE
:1050E000452B31F0AB0160E070E0C801CFD7898378
:1050F000B701C6012BDD81110DC00115110551F05D
:10510000B701C8015EDD811105C061E070E0CE012C
:10511000019657DD0F90DF91CF911F910F91FF9076
:10512000EF90DF90CF900895CF92DF92EF92FF92B1
:10513000CF93DF93CDB7DEB728970FB6F894DEBFD5
:105140000FBECDBF6B01E12CF12CC982DA82EB825C
:10515000FC822D833E834F835887AE014F5F5F4FA4
:1051600068E070E0AFDF28960FB6F894DEBF0FBEA0
:10517000CDBFDF91CF91FF90EF90DF90CF9008955A
:105180000F931F93CF93DF93EC018B0183DC9093FC
:105190005D0880935C08009739F0A801BE011DDC12
:1051A000EC01892B19F40BC0C6EAD4E080915C08AD
:1051B00090915D08BBDC10925D0810925C08CE01F6
:1051C000DF91CF911F910F91089580915C0890918C
:1051D0005D08A9CC2F923F924F925F926F927F927F
:1051E0008F929F92AF92BF92CF92DF92EF92FF92F7
:1051F0000F931F93CF93DF93CDB7DEB769970FB6A9
:10520000F894DEBF0FBECDBF20916008222309F4C1
:1052100026C25D8B4C8B688B798B8A8B9B8B9A011A
:10522000AB01BC01CE0101960E94AB1910E038E041
:10523000232E312C89819A81181619060CF00AC286
:105240001F861E861D861C8689819A81AC85BD8538
:10525000A817B9070CF0F3C1EB81FC812E853F85BF
:10526000E20FF31F208131813093570820935608B5
:10527000848195819093550880935408428153818D
:1052800050935308409352084681578150935108D8
:1052900040935008820F931F9C01990F440B550BAC
:1052A0002E8B3F8B488F598FC12CD12C76012E89A4
:1052B0003F89488D598DC216D306E406F50608F0DD
:1052C000A2C11F8260915608709157088B01072E6A
:1052D000000C220B330BD701C6010496A11DB11D92
:1052E00080179107A207B30728F4E0915208F091C4
:1052F00053080AC0E4E0F0E0E61BF70BEC0DFD1DDF
:105300008091500890915108E80FF91F4080512C6E
:10531000612C712CD701C6010596A11DB11D801706
:105320009107A207B30728F4E0915208F0915308BF
:105330000AC0E5E0F0E0E61BF70BEC0DFD1D8091E7
:10534000500890915108E80FF91F8081582AD70121
:10535000C6010696A11DB11D80179107A207B307CC
:1053600028F4E0915208F09153080AC0E6E0F0E01A
:10537000E61BF70BEC0DFD1D809150089091510834
:10538000E80FF91F8081682AD701C6010796A11D81
:10539000B11D80179107A207B30728F4E0915208C6
:1053A000F09153080AC0E7E0F0E0E61BF70BEC0DC4
:1053B000FD1D8091500890915108E80FF91F8081E0
:1053C000782A4601570148E0840E911CA11CB11CAB
:1053D000081519052A053B0508F4B4C0C016D10606
:1053E000E206F30638F480915208909153088C0D30
:1053F0009D1D09C0C601861B970B20915008309156
:105400005108820F931F68E070E0DBDBE0915608E3
:10541000F09157089F010F2E000C440B550BD30140
:10542000C201880D991DAA1DBB1D281739074A07FF
:105430005B07C8F082169306A406B50638F42091DF
:10544000520830915308C601089609C0C1018E1B4D
:105450009F0B8C0D9D1D2091500830915108820F9B
:10546000931FB20199C08601BF01685071096C1980
:105470007D0982169306A406B50638F420915208D9
:1054800030915308C601089609C0C1018E1B9F0BBD
:105490008C0D9D1D2091500830915108820F931F53
:1054A00090DB8091560890915708B101681B790BE9
:1054B000600F711F640D751D809150089091510807
:1054C00080DB8091560890915708AC0148505109F3
:1054D000FA01E01BF10BAC01092E000C660B770BF7
:1054E00084169506A606B70638F420915208309126
:1054F0005308C60108960AC09101281B390BC9013F
:105500008C0D9D1D2091500830915108820F931FE2
:10551000AF0160E070E0BAD58F83209156083091DA
:105520005708A101421B530B9A01200F311F240D74
:10553000351D40E050E0682F80915008909151084F
:1055400091D550C0C016D106E206F306C8F46C1916
:105550007D0980915208909153088C0D9D1D31DB7F
:105560008091560890915708B101681B790B6C0D1A
:105570007D1D640D751D80915008909151080CC0DF
:10558000C601861B970B2091500830915108B2013B
:10559000685F7F4F820F931F14DB809156089091B4
:1055A0005708AC01092E000C660B770B8416950684
:1055B000A606B70638F42091520830915308C60168
:1055C00008960AC0D101A81BB90BCD018C0D9D1DF9
:1055D0002091500830915108820F931FA20160E082
:1055E00070E054D58F8361E070E0CE010796E9DA70
:1055F000182FB8E04B0E511C611C711CC40CD51C3B
:10560000E61CF71C54CE8C859D85880F991FED8173
:10561000FE81E80FF91F488959896A897B89808151
:1056200091810E94DD144C855D854F5F5F4F5D87E2
:105630004C878E859F8508969F878E8705CE2C89FF
:105640003D89488959896A897B89CE0101960E94E2
:10565000AB19F0CD112319F08C899D89D6DA6996A2
:105660000FB6F894DEBF0FBECDBFDF91CF911F9173
:105670000F91FF90EF90DF90CF90BF90AF909F90F1
:105680008F907F906F905F904F903F902F900895F4
:10569000CF93DF93EC01AC0160E070E0CB019ADDC9
:1056A000AE0161E070E080E090E0DF91CF9192CDBB
:1056B000CF9380915C0890915D08EFD9C82F81113C
:1056C0000BC060E070E0CB010E94B30F61E070E0BE
:1056D00080E090E00E94B30F8C2FCF9108950F933C
:1056E0001F9389019A01AB01BC0180915C089091E4
:1056F0005D081DDA1F910F9108954F925F926F928E
:105700007F928F929F92AF92BF92CF92DF92EF9251
:10571000FF920F931F93CF93DF93CDB7DEB76797B9
:105720000FB6F894DEBF0FBECDBF6C017B015A01EE
:1057300080916008882331F080916008882309F403
:105740004AC30AC060E678E080915C0890915D08E9
:10575000EFD9811140C3F0CF80915F081A8219827E
:10576000882309F46AC0E0E94E2EEFE55E2E662438
:105770006394712C00E010E098012A5B374FAE0172
:105780004F5F5F4F61E070E080915C0890915D0831
:10579000A5D9982E81114DC089819A81080F191FB2
:1057A0000115110509F445C081E0481A5108610846
:1057B000710839F460916108709162088DEE90E093
:1057C00030C00A30110589F549E050E060E070E032
:1057D00086E498E05FD46091610870916208882344
:1057E000F1F080914E0890E068177907D9F48EEEB9
:1057F00090E0ACD988E0E6E4F8E0DE01199601908B
:105800000D928A95E1F720916108309162082F5F2F
:105810003F4F332730936208209361080AC08FEE10
:1058200090E094D91A82198204C00A3011050CF450
:10583000A3CF81E029813A8124C000E010E078E024
:10584000672E712C29E030E02C0F3D1F200F311FF7
:10585000AE014F5F5F4FB301601B710B80915C081D
:1058600090915D083BD9982E29813A81811108C019
:10587000020F131F0115110519F00830110514F35B
:1058800081E0121613060CF080E09110A1C288236B
:1058900009F4A1C280915F08811104C019861A869B
:1058A0001B861C8689859A85AB85BC8580319105D0
:1058B00008F091C2FC018827EA56FF4F8F4F0C94E5
:1058C0009334D6011696ED91FC91179780819181C2
:1058D000A281B38189839A83AB83BC83AE014F5F7E
:1058E0005F4F64E070E085E190E07CC18D859E852E
:1058F000ABD9009731F42FEF3FEFA90161E070E0E1
:105900000EC0FC0180809180A280B380A701C501F8
:10591000B4010E945614A501940160E070E08DE18D
:1059200090E054C28D859E858FD9009721F42FEF8A
:105930003FEFA90110C0DC018D909D90AD90BD900E
:10594000AD0195018401B701C6010E94F810A501BF
:105950009401882319F061E070E002C060E070E01B
:105960008BE190E033C28D859E856ED9009721F43E
:105970002FEF3FEFA9010FC0FC0181909190A19002
:10598000B190BF01A5019401C6010E94FB12A501BF
:105990009401882319F061E070E002C060E070E0DB
:1059A0008CE190E013C2D6011496ED91FC9115970D
:1059B00000811181F80182809380A080B18060E134
:1059C000462E512C612C712C49825A826B827C822A
:1059D00088E090E0A0E0B0E08D839E83AF83B8873D
:1059E0009E012F5E3F4FAE014F5F5F4F68E070E05A
:1059F00080915C0890915D0852D8882319F000E0EE
:105A000010E0BAC089899A890897C9F7D801ED9042
:105A1000FC90B8E0EB0EF11CEE0CFF1CEE0CFF1C32
:105A2000C701D0D78C01892B51F349825A826B82EE
:105A30007C82C7010F2C000CAA0BBB0B8D839E83AD
:105A4000AF83B8879E012F5E3F4FAE014F5F5F4F20
:105A500068E070E080915C0890915D0820D8811129
:105A60008BC089899A89089709F086C0D601129659
:105A7000ED91FC9113974081518162817381D8012E
:105A80004D935D936D937C9313974481558166810B
:105A9000778114964D935D936D937C931797408512
:105AA00051856285738518964D935D936D937C93B4
:105AB0001B9784859585A685B785F801848795878A
:105AC000A687B787108A118A128A138A84E090E029
:105AD000A0E0B0E0848B958BA68BB78B8091D5032B
